:1000000040180020F91700005F4A0000CD170000DB
:10001000CD170000CD170000CD1700000000000034
:10002000000000000000000000000000D5140000E7
:10003000CD1700000000000081140000CD17000063
:100040008515000085150000851500008515000048
:100050008515000085150000851500008515000038
:100060008515000085150000851500008515000028
:100070008515000085150000851500008515000018
:100080008515000085150000851500008515000008
:1000900085150000851500008515000085150000F8
:1000A00085150000851500008515000085150000E8
:1000B00085150000851500008515000085150000D8
:1000C00085150000851500008515000085150000C8
:1000D00085150000851500008515000085150000B8
:1000E00085150000851500008515000085150000A8
:1000F0008515000085150000851500008515000098
:1001000053B94AB9002908BF00281CBF4FF0FF317E
:100110004FF0FF3000F00CB8ADF1080C6DE904CEE3
:1001200000F008F8DDF804E0DDE9022304B07047D0
:10013000704700BF2DE9F04F07468C460846099EE0
:1001400015463C461946002B40F0C6808242B2FA62
:1001500082F746D94FB1C7F1200E24FA0EFE00FAFD
:1001600007F3BD404EEA030CBC404FEA15481FFAA6
:1001700085FEBCFBF8F9220C08FB19C309FB0EFA3B
:1001800042EA03439A4528D9EB1809F1FF3004D21B
:100190009A4502D9A9F102002B44A3EB0A03A4B2A9
:1001A000B3FBF8F208FB123302FB0EFE44EA0344F1
:1001B000A64514D92C1902F1FF3303D2A64501D963
:1001C000931E2C44A4EB0E0443EA00401EB1FC40F5
:1001D000002334607360BDE8F08F4846DDE71346C6
:1001E000F0E702B9FFDE87BB831A01214FEA154E03
:1001F000AAB2B3FBFEFC200C0EFB1C330CFB02F876
:1002000040EA0343984563D9EB180CF1FF3004D260
:10021000984502D9ACF102002B44A3EB0803A4B229
:10022000B3FBFEFC0EFB1C330CFB02F244EA03445E
:10023000A2424FD92C190CF1FF3304D2A24202D9A9
:10024000ACF102032C44A41ABEE7C7F1200C20FA3B
:100250000CF800FA07F324FA0CFCBD404CEA030248
:100260004FEA154EABB2B8FBFEFC110C0EFB1C8026
:100270000CFB03F941EA0040814504FA07F423D955
:1002800028180CF1FF3104D2814502D9ACF10201EA
:100290002844A0EB090092B2B0FBFEFC0EFB1C0050
:1002A0000CFB03F842EA004398450FD9EB180CF118
:1002B000FF3204D2984502D9ACF102022B44A3EBE1
:1002C000080342EA014191E76146E2E76246F6E748
:1002D0006046A2E76346B6E7834205D90EB1C6E998
:1002E00000700021084676E7B3FA83F181B98342B2
:1002F00001D3BA420AD8BC1A60EB030301209C4622
:10030000002E68D0C6E9004C002164E70846F7E7F4
:10031000C1F1200C8B4022FA0CF41C4302FA01F5C7
:1003200000FA01F327FA0CF220FA0CFB4FEA144909
:100330001343BBFBF9F81FFA84FE09FB18BB1A0C28
:1003400008FB0EFA42EA0B42924507FA01F73ED942
:10035000A21808F1FF3004D2924502D9A8F1020098
:100360002244A2EB0A029BB2B2FBF9F809FB182265
:1003700008FB0EFE43EA024296452AD9A21808F16C
:10038000FF3304D2964502D9A8F10203224443EA7E
:100390000040A0FB0593A2EB0E029A42CE4698467F
:1003A00002D306D14F4504D2B9EB050E63EB040826
:1003B000013886B1B7EB0E0362EB080707FA0CFCB5
:1003C000CB404CEA0303CF40C6E900379CE74046E8
:1003D000C7E74346DBE73146FDE600002DE9F0477D
:1003E00086B0484B029304930D220B238DF80C200A
:1003F0008DF81430012211234348ADF80E20ADF8DA
:10040000163004F0FFF9029804F061FE28B93F4865
:1004100004F0F8F906B0BDE8F087049804F057FE40
:1004200008B93B48F4E74FF4D01102A804F09BF957
:10043000002801DA3748EBE7374904A804F093F9BC
:10044000002801DA3548E3E704F0B0FF4FF47A768C
:10045000A0FB064006FB0101E40B44EA4144C8341A
:100460004FEAD1312E4FDFF8BC80DFF8BC9041F16C
:100470000006384604F0C6F904989DF81450D0F8E8
:1004800010A0836801A95B6898479DF80C1038B9E3
:10049000DAF80030019A5A400123AB401A402CD0C0
:1004A0000298012204F07EF9404604F0ABF904F012
:1004B0007DFF4FF47A73A0FB035003FB0101ED0BAA
:1004C00045EA4145A5424FEAD13171EB0603D0DA46
:1004D000651B4FF4004C25EAE57540F2E73000213A
:1004E0004FF47A720023C5FB0C01FFF709FE03F0FD
:1004F00091FDC83446F10006BBE7029804F052F9BA
:100500004846D2E73C5400002C58000046580000F2
:100510006A5800008E58000010000100AA58000020
:10052000C6580000DB580000E958000000B589B04B
:1005300000220023CDE9062300230122CDE9032375
:10054000CDE9013300930649064B07484FF480621A
:1005500003F0E2F8054B186009B05DF804FB00BF3A
:1005600020100020DD030000A8010020500300201F
:100570000B6801330B60014B1B681847000000201B
:10058000014B1860704700BF0000002007B50B4604
:10059000002102460191034801A900F0E5F803B0EB
:1005A0005DF804FB710500002DE9F84FB0F81890D4
:1005B00019F00808044693460DD001290CBF49F0F4
:1005C000100949F02009A0F818908BF31188BFF3A7
:1005D0006F8FBDE8F88F09F00709022907D120467F
:1005E00004F01DF90028F0D00128238B4ED1676953
:1005F000218B002F15DA256821F00701C4E9008856
:1006000041F0010121830026218B01F0070ACA4530
:1006100002D0A368002B5AD10DB9002E71D000234F
:1006200056E001F007035A1F012A1ED821F00701E6
:10063000062B256889B2C4E900880AD13DB1638BD5
:100640002A46126801339BB2002AFAD1638341F033
:1006500002012183204604F0E2F806460028D3D0A8
:10066000238B43F020032383CDE7042B0CD121F00F
:10067000070189B22183204604F0D1F805460028FD
:10068000C1D041F0200121830025BCE7032809D116
:10069000226923F00703166843F00603238300252D
:1006A0002F46B1E7042806D1226923F007035668D4
:1006B00043F00403F2E7052806D1226923F007037B
:1006C000966843F00503E9E700252E46E8E7012395
:1006D00041F0080121838BF31188BFF36F8FFBB9C1
:1006E00085BB16B11F492046B0474FF02003EFF3FA
:1006F000118B83F31288BFF36F8F238B23F00803D2
:100700002383238BDA0625D523F0100323830121CD
:10071000B4F8189009F0070900297FF45EAF54E798
:10072000A1680029DCD0D1F80090D1F804B03B4694
:1007300052462046D847B9F1000FD1D04946D9F8E2
:100740000090F2E729463B46524620462D6804F0C9
:1007500082F8C5E713F020011EBF23F02003238396
:100760000221D5E7834800002DE9F04F91B08B4678
:10077000029092461C4600259AF8000008B92846C7
:100780005FE325280AF1010707D0029B59469847E5
:100790000028C0F25683013512E2182200210AA86F
:1007A00004F089F99AF80130252B78D00022104600
:1007B000964694461646394617F8013B2B2B00F017
:1007C0009D8000F29480202B00F09B80232B00F072
:1007D0009B802EB19DF8306046F004068DF83060A5
:1007E000BCF1000F05D09DF8306046F008068DF88A
:1007F0003060BEF1000F05D09DF8306046F0100665
:100800008DF8306028B19DF8300040F020008DF860
:1008100030002AB19DF8302042F040028DF830209F
:100820009DF8302002F04400442803D16FF3861273
:100830008DF830209DF830202A2B42F080028DF870
:1008400030207BD19DF8312042F001024B1C8DF805
:1008500031201A782E2A9DF831200CBF0121002169
:1008600061F341028DF8312074D15A782A2A6AD076
:10087000013300210A26184610F8012BA2F1300797
:10088000092F40F28E809DF830200E91C2F3400077
:1008900040EAD17161F341028DF830205AE00AF14B
:1008A00002078DF833309DF83130D90740F1498186
:1008B00054F8049BB9F1000F07DA9DF8302042F09C
:1008C00004028DF83020C9F100095A0740F1428135
:1008D00054F8048BB8F1000F80F241819DF831305B
:1008E0006FF341038DF831304FF0FF3837E12D2B96
:1008F0000CD0302B7FF46DAF01225CE74FF0010C80
:1009000059E74FF0010E56E7012054E7012652E760
:100910000CFB0202303A33461E4616F8010BA0F1DA
:100920003007092FF4D9994293D09DF830100D92D9
:10093000D20F62F341018DF830108AE70B46002296
:100940004FF00A0CE8E79DF8312042F004028DF8E0
:10095000312002331F4617F8012B6C2A41D025D8CD
:10096000682A2BD06A2A46D04C2A4CD01F4617F84A
:10097000012B9DF831308DF83320782A00F2D98090
:10098000572A4DD8412A03D0453A022A00F2D18095
:100990009DF83230042262F302038DF832300123D5
:1009A0009EE006FB01213039034664E7742A26D015
:1009B0007A2ADBD19DF8313006220DE05A78682A78
:1009C0009DF8312006D1012161F3C6028DF8312056
:1009D0009F1CCCE71346022262F3C6038DF8313028
:1009E000C5E75A786C2A9DF8312001D10421EBE744
:1009F00013460322F0E79DF831300522ECE79DF81D
:100A000031300722E8E7BDF8303023F4F04323F01B
:100A1000020343F4804343F00203ADF83030A6E70D
:100A2000A2F15801202900F2848001A050F821F0A1
:100A3000F50A0000330B0000330B0000330B0000FD
:100A4000330B0000330B0000330B0000330B0000AE
:100A5000330B000091090000330B0000F50A000081
:100A6000B50A0000910900009109000091090000F9
:100A7000330B0000B50A0000330B0000330B0000FD
:100A8000330B0000330B0000FD0A0000F50A0000E4
:100A9000190B0000330B0000330B0000190B000092
:100AA000330B0000F50A0000330B0000330B00008D
:100AB000F50A00009DF83210012003F0780360F37E
:100AC0000201402B8DF8321002BF9DF8301041F02A
:100AD00001018DF83010632A31D1003B18BF01238A
:100AE0009DF83020C2F340010B4363F341028DF8BF
:100AF0003020D8E69DF832100220DEE79DF8322043
:100B000003F07803A3F14000032161F302024342A2
:100B10008DF832204341E3E79DF83220032113F0A2
:100B2000780F61F302028DF8322014BF01230023F5
:100B3000D6E79DF8303043F001038DF830300023C4
:100B4000CEE79DF93020002AB4BFDDF834904FF095
:100B5000FF39BAE69B077FF5C7AEDDF838809DF810
:100B600031100023CDE90D339DF8323003F0070337
:100B7000012BC1F3C30138D1CB1E042B22D8DFE8EF
:100B800003F003090921210054F8043BDA17CDE9E9
:100B90000A3206E0073424F00704F4E80223CDE922
:100BA0000A239DF8303013F0030656D002983B46D6
:100BB0005246594603F02EFF0028C0F242810544F8
:100BC000BA46D9E554F8043B01294FEAE372CDE96E
:100BD0000A3205D19DF828300A9300230B93E0E7F1
:100BE0000229DED1BDF92830D0E7022B23D1CB1E5C
:100BF000042B13D8DFE803F0030A0A12120022685C
:100C00000A920023201D0B930446CAE7E01D20F042
:100C10000700F0E80223CDE90A23F5E754F8043B86
:100C20000A9301294FF000030B93D3D00229B8D1C6
:100C3000BDF82830D0E7042B09D1E31D23F00703CA
:100C400003F10804D3E90023CDE90A23A9E7032B24
:100C500004BF54F8043B0A93A3E79DF833007828B7
:100C6000AED8622822D825283FF48FAD5828A7D1C6
:100C70000DF126030093DDE90A0104AB0CAA03F091
:100C800083FE8246B8F1000F0DF126000CDB9DF8C3
:100C90003020A0EB0A036FF3861298458DF83020C0
:100CA00002D9A8EB03030D9380463DE06338152875
:100CB00086D801A252F820F0390D00009D0D0000E9
:100CC000C10B0000C10B0000C10B0000C10B0000F4
:100CD0009D0D0000C10B0000C10B0000C10B000006
:100CE000C10B0000F70D0000C50D0000C90D00008C
:100CF000C10B0000C10B0000110D0000C10B000072
:100D0000C50D0000C10B0000C10B0000C50D0000A7
:100D1000B8F1000FDDF828A00ADB4146504603F089
:100D2000B6FE0AEB00080026BAF1000F0CD147E727
:100D3000504603F0A5FEF4E70A9B8DF8103000261C
:100D40000DF1100A0DF11108A8EB0A0306B10133E9
:100D50009DF83220D00668D5023352060D9948BF5F
:100D60000E9A0B4448BF9B18B9F1000F76DD9DF831
:100D70003020A9EB0309C2F38003039353076DD41A
:100D8000500661D546B1029B594630469847002827
:100D900057DB039B01351E46302356E01E070FD458
:100DA00013F0100618BF2026DDE90A23002BBFF63A
:100DB0005FAF524263EB4303CDE90A232D2657E789
:100DC0002B26F1E7002653E70A9840B30DF12603DE
:100DD00000930CAA04AB002103F0D6FDBDF832301D
:100DE00003F0EF0343F4F04343F010038246ADF801
:100DF0003230002646E70A9B07293FF6E1AEDFE8DE
:100E000001F00C04060C08080C0C1D70D8E61D80BF
:100E1000D6E6EA17C3E90052D2E61D60D0E6DFF855
:100E2000C8A006460AF105088EE7110748BF01333E
:100E300093E7184603935946029B98470028039B63
:100E400004DA11B0BDE8F08F20234D444A46002A51
:100E5000A5EB090109F1FF39EBDC0D4636B1029B28
:100E60005946304698470028EBDB01359DF8323073
:100E7000D90601D41A0706D5029B59463020984757
:100E80000028DEDB01359DF83230DB0607D59DF802
:100E90003300029B594698470028D2DB01350D9E4E
:100EA0002E44731B002B16DC0298434652465946CB
:100EB00003F0B0FD0028C4DB0544A944A9EB0503F9
:100EC000002B7FF77DAE029B5946202098470028D3
:100ED000B7DB0135F2E7029B5946302098470028DE
:100EE000AFDB0135DDE700BFFB58000008B54FF070
:100EF0002002EFF3118382F31288BFF36F8F00F0AB
:100F0000FBFD034803F07EFC00F032FAFCE700BF73
:100F1000015900002DE9F84305464FF02003EFF397
:100F2000118683F31288BFF36F8F0E4B1C689CB140
:100F30000D4FDFF838804FF00C09D4E90132002D55
:100F400008BF13462BB198F8142009FB02F2B85CD5
:100F500098472468002CF0D186F31188BFF36F8F77
:100F6000BDE8F883540300205C030020F40900204E
:100F70004209012300F01F0003FA00F0074BBFF302
:100F80005B8FC04303EB820353E8002F024043E82A
:100F900000210029F8D1BFF35B8F70476803002060
:100FA00038B51A4B1C7DBFF35B8F04F01F03012281
:100FB0009A40174B6109D04303EB810353E8001FAC
:100FC00001EA000543E8005CBCF1000FF6D1BFF375
:100FD0005B8F114213D00F4B0F4D8BB10C2363432A
:100FE000EA18E85C517803F07EFD0020FFF792FFDD
:100FF0000C235C432A1900232B51C2E9013338BD6D
:1010000083F31188BFF36F8FEFE700BFF40900206F
:101010006C030020E74A00005C0300202DE9F84340
:10102000324B334A1C7DBFF35B8F63094FEA830960
:1010300052F823302F4EBFF35B8F04F01F0843FAA2
:1010400008F313F0010F07460AD10146204600F0CD
:1010500069F828B107C80C2303FB046383E8070081
:101060000C236343F218F55C2DB92046FFF780FF8F
:101070002846BDE8F8837B1C0FD0D2F808C01E4874
:101080001E4A4FF4004500210023ECFB0501FFF749
:1010900037F80121381A04F06BF902F03BFD01200A
:1010A000FFF738FFBFF35B8F012303FA08F8144BF7
:1010B000994459E8003F43EA080349E80032002A0E
:1010C000F7D1BFF35B8F0F4B33B10C236343F2189F
:1010D000F05C517803F0FBFCFFF762FF2046FFF75E
:1010E00047FF02F0E7FE0120C3E700BFF40900203C
:1010F000680300205C0300203F420F0040420F00C5
:101100006C030020CF4A0000054BBFF35B8F53F800
:101110002000BFF35B8F003818BF0120704700BF6D
:10112000700300202DE9F04F85B00F4603A900F0B1
:1011300047F8DFF88080DFF880A0441E24B24FF02B
:10114000000B631C04D10026304605B0BDE8F08FCB
:10115000039A04EB440302EB830612F82300FFF723
:10116000D3FF054610BB70684FF40049C4462946BA
:10117000E0FB09C152465B466046FEF7C1FF0190A5
:10118000B068C4462946E0FB09C15B46524660464A
:10119000FEF7B6FF094B1B68591C01D0834205D9E5
:1011A0007A1CD1D0019B1844B842CDD9013C24B25D
:1011B000C7E700BF3F420F0040420F00040000207D
:1011C00008B9024B0B600020704700BF4856000072
:1011D000014803F037B900BF4856000010B5044677
:1011E00018B90D4B0D485B689847616808290DD008
:1011F00031F004030AD011F0020108D0084821465A
:1012000003F0A9FF002323600023636010BD206862
:10121000142203F050FCF7E7E00000202A590000F8
:101220008C03002008B508B34368042B10D10122B9
:101230000368BFF35B8F53E8001F002903D143E825
:1012400000200028F7D1BFF35B8F0BD1002008BD31
:1012500053B100684FF0FF324FF0FF3302F000FB54
:101260000028F3D00348F2E70348F0E76FF4E040CA
:10127000EDE700BFE98FFFFFEA8FFFFF08B5D0B1B0
:101280004368042B11D100220368BFF35B8F53E83E
:10129000001F012903D143E800200028F7D1BFF344
:1012A0005B8F074808BF104608BD3BB1006802F0DD
:1012B0004FFB0020F8E76FF4E040F5E70148F3E763
:1012C000E98FFFFFEA8FFFFF10B5044618B9164BF0
:1012D00016485B6898476368042B23D0082B21D0FD
:1012E000CBB92368BBB912484FF0FF324FF0FF3340
:1012F000214602F0B1F908B923681BB90A4B0D4821
:101300005B68984720681422002103F0D4FB6368CF
:1013100043F002036360206803F05BFF636843F0FF
:101320000103636010BD00BFE00000202A590000E7
:101330008C0300205059000008B506490648402398
:10134000142203F0EDFEBDE808400449044803F010
:10135000D9B800BFA80300208C030020605600000D
:1013600050560000014910220A60704710ED00E05D
:1013700072B6404080F31188BFF36F8FBFF34F8F79
:1013800030BF62B6BFF36F8F704700BF72B649407F
:1013900081F3118820BF80F3118862B6704700BFC7
:1013A00043B2002B08DB012200F01F0002FA00F01C
:1013B0005B09024A42F82300704700BF00E100E0E9
:1013C000054B420900F01F0053F82220012303FAC5
:1013D00000F01040704700BF00E100E043B2002B76
:1013E000A8BF03F1604301F10101B8BF064B4FEA0A
:1013F0004111ACBF03F5614300F00F00C9B2B4BFA7
:10140000195483F80013704714ED00E030BFFFF764
:10141000FDBF00BF0B4A08B50B4B22F07F029A605C
:10142000BFF34F8FBFF36F8FD3F8882022F4700281
:10143000C3F8882002F040F802F05EFE00F0D0F918
:1014400002F07EF80000000000ED00E0094A0A49C1
:10145000936809689967094958674B6843F0805356
:101460004B60002383F31188BFF36F8F9368986FED
:10147000704700BFF4090020A057000000ED00E015
:1014800012498A684FF030001044EFF3098C80E86D
:10149000F01F202080F31288BFF36F8F0C4F4FF0A6
:1014A0000066CA698A603E60506F0023536780F30C
:1014B000118804B5104600F02FFABDE8044002F18F
:1014C000300090E8F01F8CF309887047F409002081
:1014D00004ED00E01EF0040F0CBFEFF30880EFF303
:1014E0000980816911F8021C0229FFD001B503F0BF
:1014F000AEFA01BD42F8203C009B42F81C3C0A4970
:10150000019B42F8183C029B42F8143C21F0010177
:101510004FF0807342F8043C42F8081C0023203A44
:1015200002654367704700BF75490000094A0346DA
:10153000906870B113F1160F406E05D0A0F1200233
:101540009A4205D8834203D2814228BF00207047C7
:1015500000207047F409002008B5094B98600D463B
:10156000144600F0D9F9204685F30988002163B6B6
:1015700081F31188BFF36F8F0022002303F0FAF983
:10158000F409002001B572B60B4A906900281EBF0D
:101590000021916103F00EFE62B6EFF30580A0F129
:1015A00010004FEAC0000549014409C99847BDE849
:1015B0000140034908470000F40900209C54000042
:1015C000C5150000044B9968D869884203D00349C7
:1015D0004FF080520A607047F409002004ED00E0EB
:1015E00038B51C4B14469A6A9A6A9A6A054690075F
:1015F00020D5586B9A6A12061CD519B19A6A22F046
:1016000080029A629A6A9A6A9A6AD20615D49B6A8A
:101610009B0712D400200F4B9A6A920642BF5A6A67
:1016200022F400525A629A6A42F0FF029A62002340
:10163000237038BD6FF01500E4E7064B5B681905B1
:10164000E8D52946FFF772FF0028E3D080F3098828
:101650000220E0E700ED00E00D4B9A6A9A6A9A6A70
:10166000920508D59A6B9A6A120404D518B19A6A41
:1016700022F400429A62064B9A6A9A6AD20558BFCF
:101680009A6A9A6A002042F47F429A620870704710
:1016900000ED00E070B5484B5B688AB00D46C3F3BF
:1016A0000803002686F31188BFF36F8F02F07F4195
:1016B000B1F17F4F11D102F00C0108290DD01107B3
:1016C00001D4054601260022033B8DF80720032B99
:1016D0006BD8DFE803F00455595D3546F3E7364B28
:1016E000DC6A14F0020460D1DA6A002A15DBDA6AD7
:1016F000520012D5AA6932F8021C4DF602729142CC
:101700000AD093F828200AB30DF1070201212846D8
:10171000FFF766FF044600E02C689DF807309BB990
:101720002022294602A803F0BBF9099B002E3ED0D7
:10173000C3F3080222B96FEA53236FEA43230993E4
:1017400002A9204603F081F90AB070BD93F8292060
:101750002AB10DF107010120FFF77EFFDAE75A8D6C
:1017600092B2002AD9D09A6A9A6A9A6A9A6A9A6A4E
:101770009A6A9A6A6FEA02426FEA12429A62CCE768
:101780000DF107020021C2E70DF107010020E3E798
:10179000094B9A6A9A6A9A6A9A6A9A6A9A6A9A6AD9
:1017A0006FEA02426FEA12429A620024B5E723F41C
:1017B000FF7323F00103C2E700ED00E0024A536922
:1017C00043F010035361704700ED00E0EFF3088031
:1017D000EFF3098101B57246FFF75CFF01BD00BF61
:1017E000044800232021C2180133302B82F8001353
:1017F000F9D1704700E100E0002080F31488BFF3C6
:101800006F8F03F0D9FD00200D490860BFF34F8FA3
:101810000C4880F3088800F02BF8202080F3118812
:1018200009484FF40261401880F30988EFF31480EF
:101830000221084380F31488BFF36F8FFFF7EAFD9E
:1018400094ED00E040180020C01900200749D1F8AD
:1018500090200023C2F307221846934200D170471C
:10186000C1F89830C1F8A0000133F6E700ED00E0C0
:1018700008B572B6002383F31388FFF7E7FF144B14
:101880004FF0FF32C3F88020C3F88420C3F88820CB
:10189000C3F88C20C3F89020C3F89420C3F8982094
:1018A000C3F89C20C3F88021C3F88421C3F88821A1
:1018B000C3F88C21C3F89021C3F89421C3F8982170
:1018C000C3F89C2162B6BFF34F8FBFF36F8F08BD83
:1018D00000E100E0084B9B6883420BD1EFF30583E6
:1018E00043B1064B5A6842F080525A605A6A22F459
:1018F00000425A6202F0AEBBF409002000ED00E0A5
:10190000024B034A0348012100F06EB80000042096
:101910000000002074560000426E054B203A1A6009
:10192000044A2021C3E901121846012100F066B8DB
:10193000A808002000000B15F0B51F4F00268E42AE
:1019400001DB1046F0BD44689CB353B104F1FF3C89
:1019500014EA0C0F18D11F2C16D905681CEA050FC4
:1019600012D1202C0568D0F808C0D2B20FD9B4F13A
:10197000004F0ED8013CB4FA84F4C4F11F04640093
:10198000072A4CEA040406D96FF01502D9E70824A7
:10199000F6E73E24F4E725F01F05154345F0100552
:1019A00044F00104C7F89820C7F89C500132C7F8EA
:1019B000A04001360C30C2E700ED00E0044B0522E8
:1019C000C3F89420BFF34F8FBFF36F8F704700BFF2
:1019D00000ED00E0BFF35F8F024B0022C3F89420BC
:1019E000704700BF00ED00E010B5034C01232278E2
:1019F000FFF7A2FF207010BD040C002008B5094AB3
:101A000000231278FFF798FF10F1160F02D0064A54
:101A1000072800DD08BDC2F89800C2F8A0300130E8
:101A2000F6E700BF040C002000ED00E01449086850
:101A3000082810B521D8FFF7CDFF124C49680022C5
:101A4000904201F10C0105D10F4B1870FFF7B6FF62
:101A5000002010BDC4F8982051F80C3C23F01F035F
:101A6000134343F01003C4F89C3051F8043C43F096
:101A70000103C4F8A0300132E2E74FF0FF30E8E79D
:101A80008056000000ED00E0040C0020014B1860BF
:101A9000704700BF2800002010B54FF02003EFF37F
:101AA000118083F31288BFF36F8F114A0123C2F8AC
:101AB00040354FF080424FF08051C2F87835D1F870
:101AC0003041082C08D1D1F83411052904D8094C2B
:101AD000615C09B1C2F838364FF080430122C3F887
:101AE000802580F31188BFF36F8F002010BD00BFE9
:101AF00000E001408C5900004FF08043C0B2C3F8B1
:101B00001C05BFF34F8F0549054BCA6802F4E0621C
:101B10001343CB60BFF34F8F00BFFDE700ED00E044
:101B20000400FA0520B1034B800143F0010318477C
:101B3000704700BF40560000084B70B5C31A0D46F1
:101B400007499B10044659430648402202F0EDFF26
:101B50002B4601462046BDE870401847C4080020C7
:101B6000B76DDBB62454000073B50C4C0C4A40230F
:101B7000041B00930D460B460A49A4106143064618
:101B8000094802F0FEFF011E05DA30462B4602B07E
:101B9000BDE87040184702B070BD00BFC408002007
:101BA000F34B0000B76DDBB624540000002270B583
:101BB000012104461046FFF711FC0F4801F062F8BE
:101BC0000E4B984215D103F0D8F926690C493046DE
:101BD00002F074FE00280BDB2469094901253564F5
:101BE00004F11C0002F06AFE002801DBE56400201D
:101BF00070BD6FF00400FBE7391C00000000AD0B66
:101C0000C856000001460C2309484B4370B5C41860
:101C1000D4E90E5600224033A263184402F072FF4A
:101C20002DB132462B460348BDE87040184770BDC1
:101C3000C40800202454000010B1012804D07047CB
:101C4000034B1B6C5B0701D1FFF7DCBF704700BF84
:101C5000C408002008B54FF02003EFF3118183F38F
:101C60001288BFF36F8F124A136843F0020013F01B
:101C7000010310600CD04FF08042D2F80C34D2F83F
:101C80000C2413F0010303D00A4802F03BFF0123A8
:101C900081F31188BFF36F8F23B1BDE808400020A6
:101CA000FFF7B0BFBDE80840012003F073B900BFE3
:101CB00014090020040900201FB500220123CDE9EA
:101CC0000223094ACDF800D06B46CDF804D002F0CB
:101CD00089FF002805DB4FF480420023684601F0AD
:101CE00099FE05B05DF804FB114C0000094BBFF3F1
:101CF0005B8F53E8002F22F0020143E80010002818
:101D0000F7D1BFF35B8FD30702D4012003F07FB973
:101D1000704700BF140900202DE9F0413949BFF395
:101D20005B8F0746012251E8003F41E80020002870
:101D3000F9D1BFF35B8F33B9334934484B60CB6083
:101D40008A6002F0CEFD7B1E012B2FD8012F07D118
:101D50004FF08043D3F81C3403F00303012B25D04C
:101D600003F022FA044618B9294B1B78002B41D105
:101D70004FF02003EFF3118683F31288BFF36F8FC8
:101D80000124DFF890804FF08045D5F81834D5F85D
:101D90001824D2030CD503F00303012B01D0012F2B
:101DA00006D10CB386F31188BFF36F8FBDE8F081C5
:101DB000ACB13046FFF7EAFAD5F81835002BE4D17C
:101DC000D5F80421002AE0D0C5F80431D5F8043153
:101DD0000123C5F81835C8F88031AB60D5E700217C
:101DE000212002F017F9E7E74FF080430222C3F801
:101DF0000423DBE74FF080430222C3F808230646A2
:101E0000BFE700BF18090020B4080020E008002048
:101E10001510002000E100E008B5084B08481860E4
:101E200003F055F938B10748FFF730FE0548FEF7D3
:101E3000A7FB002008BD6FF01200FBE71C09002083
:101E400084540000491E00000A2838B5074D044696
:101E500004D1286883680D215B68984728688368E7
:101E6000E1B25B689847204638BD00BF1C090020DE
:101E700030B54068047B01F01F05B2F5001F45EA4C
:101E8000441585B04FF0000404D1284601F07CF9D8
:101E9000002032E0B2F5800FCDE902442FD1B3F13A
:101EA000007F0CBF042305238DF80830836823FAD4
:101EB00001F1C9072FD4B2F1A07F2CD16A09012A00
:101EC00005F01F031C4A03F5E07318BF4FF0A04252
:101ED00052F82330DB071ED40DF1070421462846B3
:101EE00001F0B6F8154B984214D1204601F0FEF8E7
:101EF000134B98420ED06FF00B0005B030BDB3F11C
:101F0000C06F05D0B3F1007F0CBF02230123CBE7E4
:101F10000323C9E703940023194602AA284600F0C8
:101F200071FF074B984204D10121284601F0E4F8E3
:101F3000AEE76FF00400E0E7000300500400AD0BD3
:101F40000000AD0B10B501F0C1F8044668B901F00E
:101F500095F8084B98420AD10748214601F072F8DB
:101F6000224605210620FFF739FA002010BD6FF048
:101F70000400FBE70000AD0B7D1F0000420970B5B7
:101F8000034602D0012A15D070BD0B4E326951684C
:101F90000029F9D003F01F0301250C689D408A68D1
:101FA0002A4002D04B6830469847002CECD021469E
:101FB0002468F4E7014EE9E73C5400005454000063
:101FC0002DE9F04347683B7B01F01F0585B00E46C5
:101FD00045EA43151446CAB902A9284601F038F863
:101FE0000446284601F0F8F84A4B984204D06FF0B6
:101FF000040005B0BDE8F083844205D19DF80800D7
:1020000001F06EF8A042F2D10020F2E74FF0000993
:102010000DF103013046CDE9029901F019F84B4664
:10202000804602AA4946284600F0ECFE394B984209
:1020300002D06FF01500DCE7804503D19DF8030066
:1020400001F04EF8A30351D540F20663234040F25D
:10205000062293423BD00CD8062B15D004D89BB156
:10206000022BE6D104230FE0B3F5007FE1D1012379
:102070000AE040F2024293422BD0B3F5C06F2AD05F
:10208000B3F5806FD5D102238DF8043084F480330A
:10209000C3F30043E0068DF8053054BFC4F340138A
:1020A000032321038DF8063017D57B68012101FA3F
:1020B00006F6C3F80865002201A9284600F050FF83
:1020C000144B984214BF6FF01500002091E70723CE
:1020D000DAE70523D8E70323D6E7620341BF7B682D
:1020E000012101FA06F6C3F80C65E4E7E3064FF0B8
:1020F000000354BFC4F3401403241A4601A9284620
:102100008DF8044000F07EFE024B98423FF47CAF15
:102110008FE700BF0000AD0BF0B54B79012B26D047
:10212000032B21D110268B79032B1DD1CC790CB137
:10213000012C19D10A7912B1022A15D10E220B688D
:102140004568B3F5164F2D6865D02DD8B3F5165FE9
:1021500064D016D8B3F5966F62D00AD8B3F5967FDF
:1021600061D0B3F5167F61D06FF0850052E0002694
:10217000D9E7B3F5166F5CD0B3F5965FF4D1374B62
:102180003CE0B3F5E14F57D007D8B3F5615F55D0C8
:10219000B3F5964FE8D1324B30E047F61227BB42F9
:1021A000E2D14FF4000329E0B3F5613F48D013D8E2
:1021B000B3F5963F47D009D84DF6C027BB4244D06F
:1021C000B3F5614FD0D14FF46B0317E0B3F5E13FA6
:1021D000CAD14FF0EB7311E0B3F5612F38D008D8B6
:1021E000204FBB4237D0B3F5E12FBDD14FF0E863AC
:1021F00004E01D4FBB42B7D14FF080530069C5F8D2
:102200002435031D03C934432243C5F86C2583E8F4
:1022100003000020F0BD4FF41D03EFE7134BEDE783
:102220004FF49E23EAE74FF4A033E7E74FF41C3363
:10223000E4E74FF41D23E1E70D4BDFE70D4BDDE74E
:102240004FF06C73DAE70C4BD8E74FF46503D5E732
:102250004FF07063D2E74FF08063CFE700B0130018
:1022600000A04E0090D0030040420F000050270015
:1022700000C0750000F03A0000903A012DE9F743E4
:10228000D0F804800669D8F80040D8F80C900021F6
:10229000C4F800150746306001AA484602F096FDD2
:1022A000051E56DB019BD9F800201979186802F049
:1022B000AAFD051E4DDB311D3846FFF72DFF0546F3
:1022C000002846D1D8F80430990719D506F1120034
:1022D00001F07CF8224B98423FD1B07CC30003F15F
:1022E000804303F5F83304F10C0204F59071C3F850
:1022F0001015C3F814251B4A01238340C2F8043586
:102300000823C4F8003598F808305BB9C4F81031D8
:10231000D4F8103106F11103C4F834350123C4F8A0
:1023200038352360D8F804309A075CBF4FF48072C8
:10233000C4F80423DB0644BF4FF48003C4F804331D
:1023400010360023C4F84465C4F848350123A3605F
:10235000E360284603B0BDE8F0836FF00405F8E7BA
:102360000000AD0B00F00140F8B5066905460F46C8
:1023700002F01AFF10B92C4B1B7883B94FF02003E1
:10238000EFF3118483F31288BFF36F8F686802F054
:10239000B5FC28BB84F31188BFF36F8FEEE764248C
:1023A000686802F0ABFC70B9012002F0E4FD013C6A
:1023B000F6D10021212001F02DFEF0E784F31188F1
:1023C000BFF36F8FF5E74FF02003EFF3118483F332
:1023D0001288BFF36F8F686802F090FC0028EDD080
:1023E00006F8107F69680B680122C3F84465C3F8DA
:1023F00048250022C3F82021D3F82001C3F8582132
:10240000D3F858214A68D20641BF0822C3F80025F4
:102410004FF48002C3F8042301229A6084F31188E8
:10242000BFF36F8FF8BD00BF1510002010B501235A
:102430008340114ABFF35B8FDC4352E8001F01EA7F
:10244000040C42E800CEBEF1000FF6D1BFF35B8F63
:102450004FF4803202FA00F002F1804202F580521D
:10246000C2F80803BFF35F8FBFF36F8F0B4214BF37
:102470000120002010BD00BF3C0900201949F8B51B
:10248000044622F07F450868C1E90023A5F5001342
:10249000101AB3F5400F22D2134B1B681A0A1B0601
:1024A0005E19124B42F10007C3E90067012601F0F3
:1024B00001FFA30003F1804303F58833D3F84025DF
:1024C000AA420BD11EB94FF40002C3F84025084BB5
:1024D0004FF4803000FA04F4C3F84443F8BD0026FA
:1024E000E5E700BF4002002040090020280200204C
:1024F0000010014019B3BFF35B8F0123104A8340E2
:1025000052E8001F194342E8001CBCF1000FF7D14C
:10251000BFF35B8F0B4A4FF480338340C2F8043320
:10252000094BBFF35B8F1B68BFF35B8F23FA00F08F
:10253000C30742BF054B4FF40032C3F80021704778
:102540003C090020001001403809002000E100E0B3
:102550000D4B1868010A0006BFF35F8F0B4BD3F8D1
:102560000435181841F10001B3F5801F0AD2084B59
:10257000D3E90023904271EB030303D210F1807082
:1025800041F10001704700BF4009002000100140E8
:10259000280200202DE9F04F85B0164698460546E2
:1025A000FFF744FF0090FFF7D3FFB04271EB080341
:1025B00078D2464B301A68EB0101984271F1000362
:1025C00080F08180424B03EB0513D3E902ABD84581
:1025D00008BF564551D04FEA850909F1804905F1F8
:1025E000500709F58839BF004FF4803101FA05F32F
:1025F000BFB226F07F4207F180470193D9F840052A
:10260000344B07F588371446D3F80415401A20F0E8
:102610007F4021F07F4C0128C9F840C507D1CDE9A2
:102620000221132002F0C4FEDDE90221294B01F151
:10263000020CA4EB0C0020F07F40B0F5000F88BF27
:1026400064460020386038680198C3F8440324F0D9
:102650007F40C9F84005D3F80405814206D0201A0E
:10266000023820F07F40B0F5000F19D8A41A24F0EA
:102670007F4414EB060A48F1000B15490E982B0114
:1026800001EB0512C2E902ABC8500F9B5360002456
:1026900028460099FFF72EFF204605B0BDE8F08FD1
:1026A0002046B1E701230C4ABFF35B8FAB4052E8F1
:1026B000001F194342E800100028F8D1BFF35B8FD8
:1026C000B246C346D9E76FF01504E1E70100000107
:1026D00030020020001001403809002073B5194B6A
:1026E000194D00244FF0FF304FF0FF31C5F8084579
:1026F000C3E902014FF48033C5F80433134B0226BB
:102700004FF400320121C5F804631120C3F8802181
:102710002246FEF763FE1120FEF742FE0C4A01231B
:10272000AB602B6013600B4B0B4A009301940023AA
:102730002046FFF72FFF3046FFF7EEFA204602B0A3
:1027400070BD00BF300200200010014000E100E039
:102750003C0900207D240000FFFF7F002DE9F743A6
:10276000354CD4F804339A070BD5D4F8043143B16F
:10277000324A0023C4F80431D4F804311368013319
:1027800013604FF02003EFF3118283F31288BFF33D
:102790006F8FD4F80433DB0312D5BFF35B8F284B64
:1027A00053E8001F21F0010043E80006002EF7D196
:1027B000BFF35B8F002936D1D4F84031002B32D1E2
:1027C000002382F31188BFF36F8F4BB3FFF7C0FE76
:1027D0004FF02003EFF3118C83F31288BFF36F8F58
:1027E000184BD3E90267B04271EB07024FF00002C9
:1027F00020D34FF0FF384FF0FF39D3E90015C3E97C
:1028000002891A604FF48033C4F848338CF311887E
:10281000BFF36F8F21B1009532463B4600208847B9
:1028200003B0BDE8F0830023C4F84031D4F8403150
:102830000123C6E71146E9E70010014040090020E6
:102840003809002030020020431C13B521D0012894
:1028500021DDB0F5000F20DA441EFFF779FE104BA2
:10286000D3E90013401AB0F5000F28BF002401304F
:1028700002190C48824228BF024652184FF000004D
:1028800009490190009143F10003FFF783FE02B074
:1028900010BD0448E0E70024DFE7024CDDE700BF9D
:1028A00040020020FFFF7F007D24000008B5FFF7F5
:1028B0004FFE024B1B68C01A08BD00BF400200203B
:1028C00000F01F0140090128044B4FF0010218BF1E
:1028D0004FF0A0438A40C3F80C2570470003005016
:1028E00000F48053002B30B507BF14460D46012479
:1028F0000025C0F3811200F01F0110F0200F00F43A
:10290000706040EA8202064B42EA050208BF4FF0BF
:10291000A04301F5E07142EA440243F8212030BDB2
:102920000003005000F01F0140090128044B4FF044
:10293000010218BF4FF0A0438A40C3F80825704732
:10294000000300504FF08053D3F83021082A06D1FD
:10295000D3F83431052B02D8024AD05C70470020EE
:10296000704700BFBA590000024AD2F80034002B69
:10297000FBD0704700E0014010B502F0F2FA40B120
:102980004FF080430022C3F80C21C3F81021C3F894
:10299000382502F0E6FA002846D04FF08052604B0E
:1029A000D2F80414C3F82015D2F80814C3F824157B
:1029B000D2F80C14C3F82815D2F81014C3F82C154B
:1029C000D2F81414C3F83015D2F81814C3F834151B
:1029D000D2F81C14C3F84015D2F82014C3F84415DB
:1029E000D2F82414C3F84815D2F82814C3F84C15AB
:1029F000D2F82C14C3F85015D2F83014C3F854157B
:102A0000D2F83414C3F86015D2F83814C3F864153A
:102A1000D2F83C14C3F86815D2F84014C3F86C150A
:102A2000D2F84424C3F87025FFF78CFF18B13D4B52
:102A30003D4AC3F88C26FFF785FF18B13B4BFB22BC
:102A4000C3F81825FFF77EFF70B14FF080414FF0BB
:102A50008053D1F8E42ED3F8583222F00F0203F05D
:102A60000F031343C1F8E43EFFF76CFF20B1304B76
:102A70004FF40072C3F8402602F073FA48B14FF0E9
:102A80008043D3F80024D20744BF6FF00102C3F89B
:102A900000244FF08053D3F83021082A0ED1D3F808
:102AA0003431052B02D8234AD35C3BB14FF01023BD
:102AB000D3F808224FF08043C3F858254FF0102375
:102AC000D3F80022002A03DBD3F80432002B22DAE9
:102AD000194901234FF01020C1F804351224FFF7E3
:102AE00043FFC0F80042FFF73FFFC0F80442FFF782
:102AF0003BFF0023C1F80435FFF736FFBFF34F8FCC
:102B00000E490F4BCA6802F4E0621343CB60BFF377
:102B10004F8F00BFFDE70B4B0B4A1A6010BD00BF83
:102B200000C00040005000404881030000F0004019
:102B300000900240B459000000E0014000ED00E0C8
:102B40000400FA05540000200090D00370B5012560
:102B50000268B2FA82F3C3F11F035E1CDCB214D028
:102B6000BFF35B8F05FA03F322EA030350E8006F1B
:102B7000964204D140E8003CBCF1000FF6D1BFF30F
:102B80005B8FE5D102480C7070BD0248FCE700BFC6
:102B90000000AD0B0200AD0B0368CB40DB0710B5A6
:102BA00015D4012303FA01F10368BFF35B8F41EAF7
:102BB000030250E8004F9C4204D140E8002CBCF1D5
:102BC000000FF6D1BFF35B8FEED1024810BD024873
:102BD000FCE700BF0000AD0B0400AD0BF7B50446E9
:102BE00018B1012829D003B0F0BD4FF08043022274
:102BF000C3F80823C3F80401D3F804210122DA60E2
:102C000001239C428DF8073014BF00250DF1070504
:102C100042F210774FF08046D4B1012CE3D125B1B8
:102C2000D6F80C3403F001032B70D6F80C34DB0318
:102C300018D4134B00225A71D5E74FF0804300227D
:102C4000C3F80803C3F80021D3F800215860D7E780
:102C500025B1D6F8183403F003032B60D6F81834E6
:102C6000DA03C0D52DB9012002F085F9013FD3D197
:102C700003E09DF80730012BF5D0012CD9D0B2E745
:102C800044090020044B1A7922B9012218609A8065
:102C90000248704702487047440900200000AD0B0D
:102CA0000C00AD0B4FF0804310B5D3F800216AB192
:102CB0000022C3F80021D3F800210122C3F8082321
:102CC000114B587910B95A711B6898474FF08043DF
:102CD000D3F8042172B10022C3F80421D3F80421EF
:102CE000D3F81824D3F81814920704D10122C3F89A
:102CF00018259A6010BD0222C3F80823024BBDE8D4
:102D000010401B680120184744090020036803F0A5
:102D10001F025B09012B0260024818BF4FF0A04060
:102D2000704700BF00030050034B083033F8100019
:102D3000C0F34010704700BF5800002070B500F18C
:102D400008030C4C34F81330DA0505460E4607D557
:102D5000C3F3432304EBC30254F83330526898475B
:102D6000A3682BB1E26831462846BDE87040184799
:102D700070BD00BF58000020124A083010B432F86D
:102D80001030D9051BD5C3F3432123F4F85322F89F
:102D9000103002F11004002034F8023B13F4807F5D
:102DA00003D0C3F34323994209D001303028F3D133
:102DB000002342F83130044810BCFFF7EDBE10BCD0
:102DC000704700BF58000020CC00002038B50246F4
:102DD000FFF7AAFF094C02F1080540B134F815309D
:102DE00007495B0B03F5A273002041F8230010464E
:102DF000FFF7C2FF002324F8153038BD580000202B
:102E0000006000402DE9FF41044617461D4621B3EE
:102E10004E4E00F1080836F818309B0706D5FFF72C
:102E200083FF18B14A4804B0BDE8F0810023CDE922
:102E300000338DF80E308DF80F300DF10F020B4678
:102E400020460DF10E0102F0E4F836F8183023F0B8
:102E5000020343F0010326F8183097B13B4B3E784C
:102E60007A6804F1080033F810108F070CD5002A97
:102E7000D8D133F8102022F01C0242EA860223F84F
:102E80001020CDBB3348CEE721F02001C904C90C86
:102E900023F81010002AECD0032EC3D817782EB9CF
:102EA0002D4A07F5A27142F82160E2E7BA0002F16B
:102EB000804202F5C04241EA4731D2F810C52CF0F9
:102EC000030CC2F810C5D2F810C52CF44F3C2CF4FA
:102ED000407CC2F810C5D2F810E54FEA042C0CF47F
:102EE0007C5C4EEA064E4CEA0E0C41F0200123F8C1
:102EF0001010C2F810C5BCE7D5E900672046FFF7FF
:102F00003BFF002EBED0114D2B689E4204D16B6852
:102F10009F4201D100220AE010480DF10F01FFF796
:102F200015FE0C4B98427FF47EAF9DF80F2045F8BC
:102F3000326005EBC20308345F6035F8143043EAB1
:102F4000422343F4807325F814309BE75800002097
:102F50000400AD0B0000AD0B00600040CC00002071
:102F6000F0B5044685B0154619B3334E00F1080795
:102F700036F81720930703D4FFF7D6FE002858D160
:102F800012F01C0F02D04B78012B52D001238DF888
:102F90000F300023CDE900134A1C8B1C20460DF195
:102FA0000F0102F036F836F8173043F0030326F825
:102FB000173015B9214805B0F0BD1F4E04F10807C0
:102FC00036F81700830734D595F800C061468900AC
:102FD00020F0200001F18041C00401F5C041C00C87
:102FE00026F817000023C1F810356A78002AE1D0CE
:102FF000D1F81035AD7823F4991323F4F853C1F8C0
:103000001035D1F810E5230203F47C53120402F4C6
:10301000403243EA0E0313432A0502F4801240EAC9
:103020004C30134340F0200026F81700C1F810354B
:10303000C0E70348BFE700BF580000200000AD0B09
:103040000400AD0B014BC3E902017047580000209A
:1030500008B50246FFF768FE38B1054B054808324F
:1030600033F812305B0B0B7008BD0348FCE700BF60
:10307000580000200000AD0B0400AD0B38B50F4C1C
:1030800094F87850BDB96022294604F1100001F08F
:1030900012FD0620FEF784F9094B0A48C3F87C515B
:1030A000D3F87C214FF00042C3F80423012384F8B5
:1030B0007830636738BD0448FCE700BF5800002043
:1030C000006000400000AD0B0500AD0B034B93F812
:1030D0007800003818BF0120704700BF580000205A
:1030E00001460148FFF758BDC800002001460148CD
:1030F000FFF72CBDC800002037B50446FFF714FECB
:1031000004F108021E4B33F81230E8B113F0020547
:103110001AD15B0B9A0002F1804000F5C24002F127
:10312000804202F5C04205600068D2F8100540F008
:103130000100C2F8100529B1012202FA03F3114A75
:10314000C2F8043303B030BDC3F38203042B12D0A2
:10315000052B12D001A80194FFF7D8FD019BD0F8F0
:103160001015D94001F001010231204603B0BDE83D
:10317000304001F095BF0321F7E70221F5E700BFDA
:10318000580000200060004008B50246FFF7CCFD63
:10319000C0B102F108010E4B33F81130990711D478
:1031A0005B0B01229A409B000A4903F1804303F51F
:1031B000C043C1F80823D3F8102522F00302C3F856
:1031C000102508BDBDE808400021104601F068BF89
:1031D00058000020006000400E4B00F1080213B5BB
:1031E00033F81230DB07044611D5FFF7CDFF204638
:1031F000FFF7ECFD01A80194FFF788FD019B03F5A3
:10320000E073022240F82320034802B010BD0348B7
:10321000FBE700BF580000200000AD0B0400AD0B21
:103220002DE9F04F644B65486549002687B00122BF
:1032300034461D6835B1D0F8045315421EBF1C60DA
:103240001D68164304338B424FEA4202F1D1DFF886
:103250006C81D8F87C31002B00F091804FF0A043B6
:10326000D3F820250492C3F82025D3F8202805920E
:10327000C3F8202800270DF110097B0100934FF0BF
:10328000010A49E0009B4F4A94FAA4F4B4FA84F48A
:103290001C4404F10803E00832F81330039404F0EE
:1032A00007020AFA02FC19F8002022EA0C0209F8C7
:1032B000002003A8C3F382059908FFF727FD039AAE
:1032C00002F5E0724B0750F82220AB46C2F30142F0
:1032D00029D520465946D5B2FFF730FD03A80394FF
:1032E000FFF714FD039B03F5E07350F82330C3F39D
:1032F00001439D4207D10021204601F0D1FE29461D
:10330000204601F0CDFE03A80394FFF7FFFC039BCA
:103310000AFA03F3C0F8203559F82740002CB1D140
:10332000CFB90127A9E7022A0CBF032102212046B9
:10333000019201F0B5FE032D04D0019A022A06D1B4
:10334000012DE0D159462046FFF7F8FCDBE7032AC0
:10335000D9D1022DF5E7C8F87C41D8F87C311A495B
:103360004FF0A043D3F820250492C3F82025D1F8CC
:1033700020350593C1F8203513437FF47BAF01243A
:1033800016B907B0BDE8F08F96FAA6F3B3FA83F347
:1033900004FA03F29B0003F1804303F5C04326EADD
:1033A0000206D3F81005D3F81015C0F30520C1F3B9
:1033B0000141FFF7C3FCE3E700610040006000400B
:1033C00020610040580000200003005001460148E1
:1033D000FFF7BCBBD400002010B5144C144A1549AB
:1033E000032323616361144BA261E3614FF48063A3
:1033F00023620023A3626362E36222660F4A62666D
:10340000E01D1022A2662367E366636701F02EFBCE
:10341000BFF35F8F0A49204601F028FBBFF35F8F9F
:103420002023A371BFF35F8F10BD00BF4C090020A4
:10343000C0590000C9590000150C0020050C0020DF
:10344000CD5900000E4B70B553F82040013053F8B1
:103450002060A64200D870BDD4E9003528469847C0
:1034600065B1EB6830B10028B8BF4042FF28A8BF63
:10347000FF2018705A7842F001025A700834E8E7C9
:103480008C57000008B50A4B012202201A70FFF782
:10349000D9FF00F083FF0320FFF7D4FF00F068F9A5
:1034A00001F05FF9034A137B23F00103137308BD96
:1034B00015100020C802002008B50348034A002167
:1034C000121A01F029FE08BDA801002018100020E2
:1034D00070B5002386B00122CDE90423134E144DAC
:1034E00001930F22CDE902321249182303FB005544
:1034F00006EBC01604464FF4B07000FB04110E4BEF
:1035000000954FF4A072304600F0D4F8737B0B485E
:103510002C7523F0040373734FF4026303FB04045C
:103520001C44EE606C6006B070BD00BF4802002015
:10353000F40900206018002029380000C01900207C
:1035400080B52D4BA6B083F308882C4D2C4E6B69AB
:103550002C4F43F4007300246B61E02385F8223084
:10356000EC772C766C76AC7685F820406B6A43F469
:10357000E0236B6285F82340FEF720F9FDF7F2FEA9
:103580004FF0FF33AB62EB62FEF750FAFEF7B8F98B
:1035900040F20113ADF8243006ABB360CDE91F440F
:1035A000229401F093FD2046FFF74CFF0120164DB9
:1035B000FFF748FF00F09AFC144BF56105930123D7
:1035C00013490094CDE903434FF480623B46CDE9B3
:1035D0000144284600F06EF86A7B064622F0040299
:1035E00028466A7301F02AFE2046FFF771FF3A462B
:1035F00031462846FDF7B0FFE021002000ED00E055
:10360000F409002085340000C8020020D4590000CD
:103610004014002070B50E4B0E4CA34201D3002085
:1036200070BDD3E9030141EA000212F003020BD19D
:103630009D685A61AA4201D11C33EEE75E690E60B3
:10364000013259610144F5E76FF01500E8E700BF6A
:10365000540100205401002037B50C464FF02005DE
:10366000EFF3118185F31288BFF36F8F45695DB168
:1036700025602B684361836901338361002081F3F6
:103680001188BFF36F8F11E052EA030C03D125605C
:103690006FF00B00F3E7CDE900230246083000F09D
:1036A0007BFB18B9024B9B685B69236003B030BD9C
:1036B000F40900202DE9FF410E9E0673042646738F
:1036C0000D9E867300F158050F46D61DC0E91655AC
:1036D0000C9A002526F007062037C0E90655C0E9F8
:1036E00019768560C573C56606F1200802920B9AAB
:1036F000019288440A9A009242460446FDF7FAFE77
:10370000044B65659B6803B11B6F2367404604B09B
:10371000BDE8F081F4090020F0B587B000270597D7
:10372000109F04970F9F03970E9F0297DDE9126584
:103730000D9F01970C9F00970446FFF7BBFFB5F163
:10374000FF3F08BFB6F1FF3F05D055EA060305D19C
:10375000204600F0C5FA204607B0F0BD03493246C6
:103760002B4604F1180000F02BFDF4E75D52000039
:103770002DE9F043294C2A4D87B02646AE4204F18C
:1037800030040FD300F0C6F9244CDFF898904FF4C2
:10379000004640F2E737AC4220D307B0BDE8F04323
:1037A00000F088BB54F8043C059354F8103C049393
:1037B00054F8143C039354F8183C029354F81C3CFE
:1037C000019354F8203C009354E90C0154E90A2376
:1037D000FFF770FF54F8303C5E65CEE7636A5A1C11
:1037E0000DD023EAE37300213846C3FB060151EAFA
:1037F000C333D4F8008004D1404600F071FA30346D
:10380000C9E74FF47A720023FCF77AFC02460B46B4
:1038100008F11800494600F0D3FCF0E754010020FD
:10382000540100205D52000008B50B4C0B4D4FF0C9
:103830002002EFF3118382F31288BFF36F8F01F040
:1038400087FD2B78A06113B9FDF792FDEFE7FDF737
:10385000E5FB0028EBD1F7E7F40900201510002064
:103860002DE9F341044617461E464FF02003EFF3BF
:10387000118883F31288BFF36F8FC368324A6BB12C
:1038800080689168884219D057EA060318D188F3F6
:103890001188BFF36F8F6FF00F000CE0916891F902
:1038A0000E1021610133E3609368A36088F31188EF
:1038B000BFF36F8F002002B0BDE8F0812169F0E70F
:1038C00091F90E1090F90E309942A8BF19466FF089
:1038D0007E029142B8BF11468B422EDD01F071FC91
:1038E0000546CDE9007619482246414600F054FAD3
:1038F0000028E0D04FF02003EFF3118683F3128805
:10390000BFF36F8F236821699C420AD04BB193F9B2
:103910000E309942A8BF19466FF07E039942B8BF96
:103920001946A06801F04DFC00B945B10748314681
:1039300000F0DEF86FF00A00BDE70025D1E786F35E
:103940001188BFF36F8FF5E7F409002016100020EF
:1039500038B583680446002B32D01C4A92689342E3
:1039600031D1DA7B013ADA73C368012B05D9013B07
:10397000C36000F09FFA002038BD4FF02003EFF342
:10398000118583F31288BFF36F8F0169806801F09E
:1039900018FC204601F0AEFCA06058B190F90E2052
:1039A00022610022826701F049FC0948294600F0A3
:1039B0009FF8DEE7E06085F31188BFF36F8FD8E7EB
:1039C0006FF01500D8E74FF0FF30D5E7F40900207D
:1039D0001610002038B504464FF02003EFF3118590
:1039E00083F31288BFF36F8F01F084FC48B100228B
:1039F000826701F023FC29460548BDE8384000F005
:103A000077B8D4E902329A4218BF0133A360F2E7D3
:103A10001610002013B54FF02004EFF3118184F34A
:103A20001288BFF36F8F846844B1013C846081F3D6
:103A30001188BFF36F8F002002B010BD52EA03045B
:103A400006D181F31188BFF36F8F6FF00F00F3E79A
:103A5000CDE900230246024800F09EF9ECE700BFE2
:103A60001610002038B5074D2C6854B1FEF71EFF24
:103A7000054B04441C6128680021BDE8384001F072
:103A800077BC38BD240A0020F4090020F8B50446AC
:103A90000D464FF02003EFF3118783F31288BFF335
:103AA0006F8F104E00214FF4004C40F2E73031612F
:103AB00000234FF47A72E4FB0C01FCF721FB002C8D
:103AC000094B0ADC1860094BB0681D60FFF7CAFF9C
:103AD00087F31188BFF36F8FF8BD0228B8BF0220AB
:103AE000F0E700BFF4090020240A0020200A00208B
:103AF00049B9EFF3058030B9054BDA699B689A4202
:103B000001D0FDF7A3BC81F31188BFF36F8F70471D
:103B1000F40900204FF02003EFF3118183F31288A2
:103B2000BFF36F8F044B9A68D37B013BD37381F350
:103B30001188BFF36F8F7047F409002038B5024633
:103B40000C480D4D01F074FB044600B9EC68AB68FD
:103B50004AB95A7BD20606D1A26922B9DA897F2AEC
:103B600001D9EB6138BD9C4202D02046FFF77AFFB5
:103B7000EC61F7E7140A0020F409002070B590F911
:103B80000D20437B002A014604DA03F07F034373D0
:103B900001F026FB4B7B154A63F07F034B73D2E9A0
:103BA000083402F12005AB421BD0D3B191F90E606D
:103BB00093F90E0086420FD0801B00280CDD586858
:103BC000C1E90030016059609068431A5842BDE86D
:103BD00070405841FFF7B2BFA34202D01B68002BD0
:103BE000E6D1C1E9005421605162EDE7F4090020FB
:103BF00038B54FF02003EFF3118583F31288BFF33C
:103C00006F8F174B174A9C6811688C4207D120466A
:103C1000FFF728FF85F31188BFF36F8F38BD0021B0
:103C20001160114A1268C2B1E2897F2A15D8627BFD
:103C3000D20612D10D4A94F90E10126891420CDB93
:103C40000B4A944209D01A69824203DC2046FFF7EE
:103C500095FFDCE7121A1A61DCE70022FBE700BFE0
:103C6000F40900201C0A0020240A0020200A002059
:103C70004802002070B490F90D20437B002A2ADB13
:103C8000DA0628D1826932BB144A63F07F0343739A
:103C9000D2E9083402F12005AB4217D0B3B190F954
:103CA0000E6093F90E108E420BD0891B002908DD9F
:103CB0005A68C0E900321060586070BC0020FFF7FD
:103CC0003DBFA34202D01B68002BEAD1C0E90054DB
:103CD00020605062F1E770BC704700BFF40900201B
:103CE00010B54FF02002EFF3118482F31288BFF376
:103CF0006F8F427B510704D484F31188BFF36F8F19
:103D000010BD22F004024273FFF7B4FF21460248BF
:103D1000BDE81040FFF7ECBE1610002008B590F982
:103D20000D20437B002A014604DA03F07F0343732E
:103D300001F056FA044B9868431A58425841BDE8BE
:103D40000840FFF7FBBE00BFF40900202DE9F04159
:103D5000064615461C464FF02003EFF3118783F308
:103D60001288BFF36F8F01F09BFA87F31188BFF3BE
:103D70006F8FB4F1FF3F08BFB5F1FF3F08D02A466F
:103D8000234606F118000349BDE8F04100F018BAD7
:103D9000BDE8F0815D52000010B5074B9868074BF5
:103DA0000C4618601146DDE90223FFF7CFFF2046DD
:103DB000BDE81040FDF74ABBF40900201C0A0020B2
:103DC000F8B504464FF02003EFF3118683F3128811
:103DD000BFF36F8F437BDA0649B233D182698ABB66
:103DE00003F07F03437301F0FBF9437B174A8173B0
:103DF00063F07F034373104650F8203F83421BD08B
:103E0000D3B1576A93F90E50A94210D06D1A002D04
:103E10000DDD5A68C4E9003214605C600120FFF7D0
:103E20008DFE012086F31188BFF36F8FF8BDBB4272
:103E300002D01B68002BE5D1536AC4E900031C6063
:103E40005462EBE7A1730020ECE700BFF409002007
:103E500070B50446183001F065FA4FF02003EFF317
:103E6000118683F31288BFF36F8F94F90D20637B63
:103E7000002A05DA03F07F036373204601F0B0F9EE
:103E80000B4D637BA86843F010036373031B584218
:103E90005841FFF753FE86F31188BFF36F8FAB686D
:103EA000A34203D1BDE8704001F0B8B970BD00BFB6
:103EB000F409002010B54FF02003EFF3118483F3D1
:103EC0001288BFF36F8F084B9A68D37B0133D3738B
:103ED0000020FFF733FE84F31188BFF36F8FBDE836
:103EE000104001F09BB900BFF4090020044B0021F1
:103EF00003F12002C3E908220846FFF7C7BD00BF4F
:103F0000F4090020F8B54FF02003EFF3118583F397
:103F10001288BFF36F8F1A498868437B03F07F03D1
:103F2000437301F05DF98B685A7B084662F07F02AB
:103F30005A7350F8202F82421CD0DAB14F6A93F99D
:103F40000E6092F90E40A6420FD0A41B002C0CDD8F
:103F50005168C3E900210B6053600120FFF7EEFDBB
:103F60002846BDE8F840FDF771BABA4202D012689F
:103F7000002AE6D14A6AC3E9000213604B62ECE70B
:103F8000F409002050EA01032DE9F04105460E46F0
:103F900003D1FFF7B7FF002033E06FF00104241ACC
:103FA0004FF0FF3363EB0103012C73F1000302DADE
:103FB00001F0F8F944194FF02003EFF3118883F36F
:103FC0001288BFF36F8F104F104BB8681860FFF75F
:103FD000A5FEB8680E492A463346183000F0F0F8BE
:103FE000BA68537B43F0100353734046FDF72EFA33
:103FF00001F0D8F9201A63EB0303012873F10003E1
:10400000C9DBBDE8F08100BFF40900201C0A0020D4
:104010005D520000B1F1FF3F08BFB0F1FF3F08B5AE
:1040200006D1084B9868FFF713FF4FF0FF3008BD2B
:10403000FFF7A8FF4FF47A7380FB0303C00B40EA3D
:104040004340F4E7F4090020014B9868704700BF33
:10405000F40900202DE9F04104464FF02003EFF36E
:10406000118683F31288BFF36F8F437B1A0705D540
:1040700086F31188BFF36F8FBDE8F08123F0200233
:1040800042F00801D20920D14173A36813B1204640
:1040900001F0AEF804F1180001F044F904F15807FA
:1040A0004FF00008A56DBD4200D0B5B90120FFF763
:1040B00045FD104B9B68A342DAD1EFF30583002B3B
:1040C000D6D13046FDF7C2F9D2E703F05F0343F0E3
:1040D0000803437301F084F8D7E7284601F088F815
:1040E00005F1180001F01EF9C5F878802846FFF7A1
:1040F000C1FDD7E7F409002008B50648064A07497C
:10410000121A01F00BF8BDE80840054A05490648B7
:1041100001F004B800000020A4010020105A0000A3
:1041200000000000105A000000000020034B1B6834
:104130000BB9FEF7BBBB0020704700BF280A002068
:10414000104B10B51C689C4208BF0024FFF7EEFF1F
:10415000A4B1D4E904321B1A62EBE070B3F1004F52
:1041600070F100020ADA0028ACBF18460020064BA6
:104170001B6913B19842A8BF184610BD6FF00040EC
:10418000F5E700BFD8000020F409002030B503682F
:1041900068B10A4A5268904209D043B1D3E9042178
:1041A000D0E90445121941EB0501C3E90421426835
:1041B00013605A600023C0E9003330BDD8000020EE
:1041C000B3F1FF3F08BFB2F1FF3FF8B504461F4609
:1041D000154667D081604FF02003EFF3118683F31B
:1041E0001288BFF36F8F6FF00102531B4FF0FF3C3B
:1041F0006CEB0703002B1BDB2B4BD3E90013521A8C
:104200006CEB0303551B63EB0703012D73F10002F5
:10421000BCBF01250023C0E904532448D0E9003C79
:10422000834218D1C4E9000CCCF80040446026E079
:10423000FFF77CFF013547F100072D1847EBE077CA
:10424000C4E90457E9E7521A65EB07059C45C4E940
:104250000425E7D01B68002BE4D0D3E90417D4E988
:1042600004258A4275EB070EEDDA8A1A67EB05051D
:10427000C3E904255A68C4E9003214605C6003682D
:1042800083420BD09C4209D1FFF75AFF18B1084B6B
:104290001B69834202D00021FEF7D6FA86F311880B
:1042A000BFF36F8FF8BD00BF48030020D800002087
:1042B000F40900202DE9F8430546FFF799FC4FF07B
:1042C0002003EFF3118483F31288BFF36F8F244E22
:1042D000DFF890803560244DD8F800003268404502
:1042E000D5E9001E4FEAE2770BD050B1D0E9043C8B
:1042F0009A4277EB0C0916DA9B1A6CEB070CC0E9B3
:10430000043C52184EEB0707C5E90027002535602D
:10431000FFF716FF2946FEF797FA84F31188BFF3DB
:104320006F8FBDE8F88359184EEBE377D31A3360EB
:1043300000220023C0E90423C5E90017FFF726FF88
:1043400084F31188BFF36F8F836898474FF0200381
:10435000EFF3118483F31288BFF36F8FBCE700BFC4
:10436000280A0020D80000204803002010B54FF094
:104370002003EFF3118483F31288BFF36F8FFEF7EE
:1043800095FA054AD2E90031C01841F1000184F3E1
:104390001188BFF36F8F10BD48030020024A034904
:1043A000034800F02FBA00BF45580000D95900005B
:1043B000E659000010B50A4C23681BB101232360A5
:1043C000002010BD00F0CEF80028F7D001380628F4
:1043D00003D8044B53F8200010BD034810BD00BFA4
:1043E0002C0A0020A4570000FE8FFFFFBFF34F8F61
:1043F0000549064BCA6802F4E0621343CB60BFF381
:104400004F8F00BFFDE700BF00ED00E00400FA059C
:1044100010B4094B09490A4C4FF0FE32C3F800248E
:104420004968C3F80424C3F80824C3F80C24002303
:10443000C4F8003510BC084700B00250E00000206E
:1044400000A00250D0E90012014BC3E900127047EE
:10445000E000002010B5044630B16368DB0602D5E9
:1044600000232360636010BD024B03485B689847DC
:10447000F3E700BFE0000020C0570000B0B1436880
:1044800093B1DB060ED5012350E8002F194640E812
:10449000001C9CF0000FF7D1012AF5D0BFF35F8F0D
:1044A0000020704703487047034870476FF4E040AE
:1044B000704700BFE98FFFFFEA8FFFFF68B14368D5
:1044C0003BB1DB0607D5BFF35F8F002303601846BF
:1044D000704703487047034870476FF4E0407047E7
:1044E000EA8FFFFFE98FFFFF10B5044620B10022DD
:1044F00011232260636010BD0148FFF789FFF6E7D2
:10450000E857000070B5D0E90023134C134D6360E9
:10451000D0E90230C4E902302260114B086818600B
:104520004868586088689860D1E90301D8601961CB
:10453000D5F81831DB060DD50023C5E94533C5E9AB
:104540006E3305F58A709047236805F5DC70BDE889
:104550007040184770BD00BFF0000020440A0020E2
:104560000001002038B500F02FF820B1032400F03E
:1045700063F8204638BD00F031F898B900F0ACF887
:1045800098B90F4DD5F828391B0EF02B08D1D5F866
:10459000242A0C4B9A420AD0072400F017F8E6E7C9
:1045A0000624FAE70424204638BD0024F5E701205C
:1045B00000F092F804460028F7D1C5F80C0AD8E7B5
:1045C00000B002500000E02000207047002070473B
:1045D000014BC3F8040A704700B0025010B51148EF
:1045E00000F048F800B110BD0F4800F043F8002873
:1045F000F9D10E4C204600F03DF80028F3D10C4BC9
:104600000C481C6000F036F801460028EBD100F0A1
:104610002DF8044608B1204610BD00F03FF82046B2
:10462000FAE700BF380100202C01002034010020EF
:104630003C0100203001002008B5084800F024F8B3
:10464000074800F021F8074800F01EF8064800F07F
:104650001BF8BDE8084000F00BB800BF380100208F
:104660002C01002034010020300100200020704780
:10467000704700BF08B5034B02681B681068984775
:10468000002008BDF000002008B5034B02685B68FD
:1046900010689847002008BDF000002070B5094C54
:1046A000094D2069AB68984718B1084B08485B680A
:1046B0009847084AEB68206900211160BDE8704006
:1046C000184700BF00010020F0000020E00000209B
:1046D0000C580000400A002070B51B4D1B4E0446CC
:1046E000B26828699047F8B95CB1194C2368B3B136
:1046F000012B1BD0013B23602869F36898470020F9
:1047000070BD134C216841B9124B0122C3F800253A
:10471000114AD2F81039002BFBD101312160F36826
:1047200028699847002070BD0C4870BD0A4AD2F82D
:104730001039002BFBD1074A6FF07E40C2F80035DC
:10474000FFF746FF2368D5E700010020F0000020B6
:10475000400A002000A0025000B00250E98FFFFF85
:104760007047FBF7E3BEF0B402460068D3881679C1
:104770000B43DC028768016906D513F4402F03D090
:10478000DA0748BF83F440230C680125B54023F4C1
:104790008012DB074CBF2C43AC430C603B683146B6
:1047A000F0BC1847012303FA01F103691B681942A1
:1047B00018BF82F0010212B18368DB681847836872
:1047C0001B69FBE7034658B1426802F00302012A65
:1047D00003D0032A04D1026812B100209860704708
:1047E0006FF0150070474268816002F00302032AEF
:1047F0004FF0000203460CBF006810465A60704735
:10480000002070470FB407B504A951F8040B0191BB
:10481000FBF7BCFE03B05DF804EB04B07047038BFC
:1048200013F0070305D10368002B0CBF0020032001
:104830007047022B05D1438B002B14BF00200420AE
:104840007047012B05D10368002B0CBF0020052009
:104850007047002070472DE9F0410D460746194684
:10486000281D90461E46FFF7BEFF044638B133466A
:10487000424629463846A446BDE8F0416047BDE8B7
:10488000F08110B44FF02004EFF3118284F312880A
:10489000BFF36F8F416110BC0121FBF785BE10B5DE
:1048A0000C4640B139B1081DFFF78CFF28B9A36849
:1048B00033F0030301D06FF0150010BD38B50C467E
:1048C000054658B151B10B6843B14B6833B11C2256
:1048D000002100F0F0F82C61002038BD6FF01500C9
:1048E000FBE770B504460E46FFF7D9FF051E31DB26
:1048F0004FF02003EFF3118183F31288BFF36F8F22
:10490000638B208B4FF6FF75AB4200F007022ED071
:10491000022A0ED1013363831546012381F31188E6
:10492000BFF36F8FB3B1002331462046FFF793FFEB
:1049300010E0830701D0062A0ED10023336063689C
:1049400093B9C4E90066154662B90A4620460221B9
:10495000FBF72AFE284670BD052A0CBF6FF08505BF
:104960006FF004050023D9E71E606660EBE76FF087
:104970000A05F7E7044608B5084611461A46A04757
:10498000FFF762FBFCF7A6FF2DE9F84F9A46D378B4
:104990006F2B80460F461546A3F1410B29D024D832
:1049A000582B14BF0A261026DDF828903246002323
:1049B00040463946FBF7A4FB092AD4B21ED830344E
:1049C000B045E4B277F1000309F8014D01D3D145B8
:1049D00011D82B789B0605D5082E15D1AB7843F05E
:1049E0000803AB704846BDE8F88F03F0F703702B5F
:1049F000D7E70826D8E780460F46D7E7BBF1190F5F
:104A000094BF37345734DBE7102EEBD1AB7843F04B
:104A10001003E6E72DE9F0410746884615461E4695
:104A20001446B442A4EB050002D33EB923782BB15F
:104A300014F8010B4146B8470028F2DABDE8F081CE
:104A4000704708B50020FCF751FA00F04ABB014658
:104A5000006800F046BB00210120FFF7F6BF08B553
:104A6000FCF7D4FCBDE80840FCF7ACBD01390346B7
:104A700011F8012F0AB91A70704703F8012BF7E7F4
:104A8000034600201A5C02B970470130FAE703467A
:104A900000201A5C0AB1884200D170470130F8E763
:104AA00010B5431E0A44914200D110BD11F8014BCC
:104AB00003F8014FF7E7C9B202440346934200D11D
:104AC000704703F8011BF9E74FF0FF3070470628E5
:104AD00008D14FF080430122C3F80025BFF34F8F68
:104AE00020BFFDE77047002383F31188BFF36F8F6A
:104AF00070470369C9B20C2201FB0233186C00F045
:104B0000070070474FF02003EFF3118283F3128800
:104B1000BFF36F8F036803F0C00343F00203036029
:104B200082F31188BFF36F8F7047034670B5006939
:104B3000C9B24FF02004EFF3118684F31288BFF35B
:104B40006F8F0C2505FB0104246C14F0C00401D008
:104B5000A24210D105FB010001220264002086F36D
:104B60001188BFF36F8F28B95B6803EBC1014B68F5
:104B70009847002070BD4FF0FF30F0E78022FFF72C
:104B8000D4BFF8B5069F04690546C9B24FF02000AE
:104B9000EFF3118C80F31288BFF36F8F0C2606FBA6
:104BA0000146306C00F0070EBEF1010F11D13764E1
:104BB00000268CF31188BFF36F8F46B90C2000FBE1
:104BC0000144C4E90E236B6853F8313098473046EE
:104BD000F8BD00F0C000874214BF4FF0FF366FF001
:104BE0007706E6E713B580240094FFF7CAFF02B00A
:104BF00010BD006910B4CBB21C2403FB04000021DB
:104C000010BC1047002000F0C5B9002000F0FFB92B
:104C10001046FEF7DFBE43685B68D3F810350B60C3
:104C20000020704743685B68D3F8040542400A409F
:104C30004240C3F804250020704743685B680020A9
:104C4000C3F80815704743685B680020C3F80C156B
:104C5000704743685A68D2F804354B40C2F80435AF
:104C6000002070470369586830B558B1002481426C
:104C700012D108689D6854B98D42586000D198607F
:104C8000002008606AB9002030BD2846EFE78D4259
:104C9000206008BF9C60F3E705680446002DF4D14E
:104CA0003AB198685A680A6059600028EBD1996057
:104CB000EAE76FF01500E7E702690B46D2E9010168
:104CC00083E803000020704743681B68D3F8800422
:104CD000C3F880047047436802691B68D3F8100169
:104CE00048B1527C0A700020C3F81001D3F810219B
:104CF00001221A6070474FF0FF3070470268034688
:104D0000D2F8580140B95B689B0706D4D2F820015D
:104D1000003818BF012070470120704742681368AF
:104D2000D3F80413C90518D5D3F82011A9B14FF051
:104D30002000EFF3118180F31288BFF36F8FD3F857
:104D4000200130B10020C3F82001D3F82001012058
:104D5000D86081F31188BFF36F8F5268D20615D5E2
:104D60004FF02001EFF3118281F31288BFF36F8FB0
:104D7000D3F8581111B10021C3F800154FF4800188
:104D8000C3F8081382F31188BFF36F8F704710B513
:104D90000022044601212820FCF720FB2820FCF7F4
:104DA000FFFA2046BDE81040FDF768BA10B50022B2
:104DB000044601210220FCF711FB0220FCF7F0FA67
:104DC0002046BDE81040FDF759BA704730B543683A
:104DD0001360037A03F10053013BDB00456814685C
:104DE0001D44AC4202D96FF0010030BD65798D429F
:104DF00002D008341460F1E70020F6E709B9FDF7A6
:104E00005FBDFDF78FBD70B51546044600EB81060A
:104E1000A64201D1002070BD23681A0C222A00F29C
:104E20008E80DFE802F0121D24432939438C8C8CDC
:104E30008C484D8C8C8C8C8C8C8C8C8C525E6368EA
:104E40008C8C8C6D73787D82870003F03F03C5F8EE
:104E50000C35206800F03F00FDF764FD012215E0ED
:104E600003F03F03C5F81435002200210FE003F0E2
:104E70003F03C5F80835ECE703F03F03C5F80835F4
:104E8000206800F03F00FDF71BFD00220121206893
:104E9000FDF726FD0434BBE703F03F03C5F80C35EE
:104EA000206800F03F00FDF70BFDD7E703F03F035C
:104EB000C5F81035D8E703F03F03C5F80835D3E748
:104EC00003F03F03C5F80C35CEE703F03F03C5F808
:104ED00060352068C0F3403100F03F00FFF78EFFDF
:104EE000BCE703F03F03C5F86435F2E703F03F0386
:104EF000C5F86835EDE703F03F03C5F86C35E8E722
:104F000003F03F03C5F824350122AEE703F03F0369
:104F1000C5F82835F8E703F03F03C5F83035F3E767
:104F200003F03F03C5F83435EEE703F03F03C5F85F
:104F30003835E9E703F03F03C5F83C35E4E76FF0A7
:104F4000850068E708B50020FCF7D6FDFFF732BA08
:104F500008B5FCF73DF9FCF7EFF9BDE80840FFF7AD
:104F600029BA4FF08053D3F83001A0F1080358421A
:104F700058417047004700F01BBA08B50020FCF705
:104F80001FFA08B9FCF70CFA4FF080430022C3F86F
:104F9000182508BD08B510B101282DD008BD4FF067
:104FA0008042D2F81814D2F8183413F480330BD19D
:104FB000D2F81414C90710D5D2F81C349B0708D4B2
:104FC0000223C2F80433E9E701F00303012B04D004
:104FD0001BB10020FDF702FE00234FF08042C2F813
:104FE00018350023C2F80431D2F804310223C2F884
:104FF000043301239360D1E74FF080430022C3F8CC
:105000000021D3F80021C3F804031860C6E7FDF7B8
:10501000E5BDF7B5019001A8DDE9084617461D4634
:10502000FDF774FE019B002F00EB830014BF0223E9
:105030000023002918BF43F00103002D14BF4FF0D7
:105040000C0C4FF0000C002C43EA0C0314BF4FF47F
:10505000E06C4FF0000C002E43EA0C03D0F8002760
:1050600014BF4FF4403C4FF0000C43EA0C0322EA1B
:10507000030301B109780FB13F787F0019430DB1E7
:105080002D78AD0039430CB1227814020D430EB1D6
:10509000367836042C433443C0F8004703B0F0BDE3
:1050A0001FB50DF10F03019300238DF80F1000932E
:1050B0001A461946FFF7ADFF05B05DF804FBFEF791
:1050C0008BB908B5FFF7FBFF002008BD704738B16A
:1050D000C3681888C0F30800A0F58073584258418F
:1050E0007047F8B505460E464FF02003EFF31187E1
:1050F00083F31288BFF36F8FFEF7A6FF3146044695
:105100002846FFF71FFF87F31188BFF36F8F2046F4
:10511000BDE8F840FCF7DEBBFFF7CDBCFFF7C0BC35
:1051200030B50024846141EA020414F00304C0E9AC
:10513000023201610CD14461A34203D1C0E90000F5
:10514000002030BD45690D60013441611144F3E731
:105150006FF01500F5E7F8B504460D464FF0200353
:10516000EFF3118683F31288BFF36F8F476977B926
:1051700000F0C0F858B12A684261876700F05EF815
:10518000314604F10800BDE8F840FEF7B1BC2B68D9
:1051900062691A602B686361A369013BA36186F3AE
:1051A0001188BFF36F8FF8BDEFF30580003818BF8B
:1051B0000120704708B5FBF7F3FEBDE80840FFF794
:1051C00004BE90F90E308B4201D0FEF7F9BD0020ED
:1051D000704703460020C3E90200C3E9003370476B
:1051E000D0E9003213605A600023C0E900337047F1
:1051F00008B5FFF7F5FF437B23F002034373002359
:10520000836008BD034620B9EFF305820AB9FCF7B5
:105210001DB983F31188BFF36F8F70474FF02003E0
:10522000EFF3118083F31288BFF36F8FFFF7EABFAC
:1052300003460068834208BF0020704710B54FF056
:105240002003EFF3118483F31288BFF36F8FFEF70F
:1052500011FD84F31188BFF36F8F10BD10B50146A7
:105260004FF02003EFF3118483F31288BFF36F8FA5
:1052700010F80B3C13F0280F0DD151F8103C1838E2
:105280000BB1FFF7B5FF11F80B3C23F0140301F845
:105290000B3CFEF7EFFC84F31188BFF36F8F10BD5A
:1052A00038B504460D46FEF739FD637B43F0020333
:1052B000637395B12B68A5609D4215D0A3B194F995
:1052C0000E1093F90E20914208D0521A002A05DDE3
:1052D0005A68C4E9003214605C6038BD6A68934261
:1052E00002D01B68002BECD16B68C4E900531C6032
:1052F0006C60F2E738B54FF02003EFF3118583F3CC
:105300001288BFF36F8FFFF793FF044620B1FFF7BA
:105310006FFF183000F006F885F31188BFF36F8F28
:10532000204638BD10B54FF02002EFF3118482F310
:105330001288BFF36F8F03683BB1FEF727FF002091
:1053400084F31188BFF36F8F10BD6FF01500F7E77E
:1053500010B54FF02003EFF3118483F31288BFF3ED
:105360006F8FFEF7EDFE84F31188BFF36F8F10BDD2
:1053700070B504460D464FF02003EFF3118683F31A
:105380001288BFF36F8FFEF7DBFE012805DDA04218
:1053900003DB29462046FDF757FA86F31188BFF351
:1053A0006F8F70BD08B5FEF7E1FF08BDFEF7DEBFE9
:0C53B00008B1FCF7B7BB7047FDF7DEBA90
:0853BC0078ADFF7F0100000045
:1053C400991A000000000000AD1B000024540000E6
:1053D400C35000000000000015360000000000006B
:1053E400451F000054540000451F00003C540000B9
:1053F4004D4F0000000000008F4D00006C54000071
:10540400AD4D000084540000191E0000000000008F
:10541400DD26000000000000514F000000000000E5
:1054240092590000B8560000A05600004001002028
:10543400C4080020345600009F590000F8560000AC
:10544400D456000048010020200900202E560000F8
:105454009859000008570000D45600004401002069
:105464002C09002028560000A65900007C57000093
:10547400585700004C010020400000202256000034
:10548400AD5900006C57000058570000500100202F
:085494002C0000201C56000052
:10549C00A52C0000754F000000000000574A0000CA
:1054AC00845400001D4D000000000000574A00000D
:1054BC0000000000574A000000000000574A00009E
:1054CC0021320000754F000000000000574A000018
:1054DC0000000000574A000000000000574A00007E
:1054EC0000000000574A000000000000574A00006E
:1054FC0000000000574A000000000000574A00005E
:10550C0000000000574A000000000000574A00004D
:10551C0000000000574A0000000000005D2700005A
:10552C0000000000574A000000000000574A00002D
:10553C0000000000574A000000000000574A00001D
:10554C0000000000574A000000000000574A00000D
:10555C0000000000574A000000000000574A0000FD
:10556C0000000000574A000000000000574A0000ED
:10557C0000000000574A000000000000574A0000DD
:10558C0000000000574A000000000000574A0000CD
:10559C0000000000574A000000000000574A0000BD
:1055AC0000000000574A000000000000574A0000AD
:1055BC0000000000574A000000000000574A00009D
:1055CC0000000000574A000000000000574A00008D
:1055DC006C5400001D4D000000000000574A0000F4
:1055EC0000000000574A000000000000574A00006D
:1055FC0000000000574A000000000000574A00005D
:10560C0000000000574A000000000000574A00004C
:10561C0000800080FF7F00800080FF7F0080008082
:0E562C00FF7F00800080FF7F00800080FF7FF6
:06563A00FFFFFFFFFFFF70
:105640000338FDD87047000000000000434A000006
:10565000C9120000DD110000251200007D120000BB
:10566000200000200800002018000020000000009A
:1056700010000020000000200000000000000B06C9
:105680000200000088560000000000007D59000064
:1056900026000207000000208559000022000B119F
:1056A000B91C00007D4B0000E54B0000000000002D
:1056B000F34A000000000000551C0000ED1C000033
:1056C000054C00000B4C0000691B0000391B00005A
:1056D00000000000C11F0000174C0000254C000016
:1056E0003B4C0000474C0000534C0000711E000072
:1056F000654C000000000000FFFFFFFF00000050AD
:105700000000000000000000FFFF00000003005048
:105710000000000001000000002000404857000089
:10572000010000000080024050570000010000000E
:105730000600000005000200C8000100C7000300C9
:10574000E1000100220000003057000004000000CA
:105750004057000002000000D74C00006923000001
:10576000C94C000019210000B94C00000020004085
:1057700002000000000000001857000000800240F6
:10578000020000000000000024570000C453000085
:10579000145400001C540000245400002454000041
:1057A000F5FFFFFFFF8FFFFFFF8FFFFFFE8FFFFF64
:1057B000FE8FFFFFFD8FFFFFFC8FFFFFFC8FFFFFC2
:1057C0006D757465785F667265652063616C6C6584
:1057D000642077697468204E554C4C20706172616A
:1057E0006D6574657200000043616E277420696EF8
:1057F000697469616C697A65206D757465782C20AF
:10580000776173204E554C4C0D0A0000436F756C48
:1058100064206E6F74206C6F636B20706F7765729D
:105820002073617665206D757465780054687265C3
:105830006164204120696E69742028706572696F07
:10584000646963290A00466174616C206572726F35
:10585000723A206C65643020646576696365206EF9
:105860006F742072656164792100466174616C20F7
:105870006572726F723A2062757430206465766961
:105880006365206E6F7420726561647921004661E2
:10589000696C656420746F20636F6E6669677572EA
:1058A00065206C656430200A0D004661696C656492
:1058B00020746F20636F6E6669677572652062750C
:1058C0007430200A0D0054687265616420412061C3
:1058D00063746976617465640A0D006275743020C2
:1058E0006163746976650A0D0062757430206E6FAD
:1058F00074206163746976650A0D00286E696C29ED
:10590000004661696C656420746F207265626F6F18
:10591000743A207370696E6E696E6720656E646C90
:105920006573736C792E2E2E0A006D757465785F21
:10593000696E69742063616C6C6564207769746852
:10594000204E554C4C20706172616D65746572001B
:10595000436F756C64206E6F7420616C6C6F636153
:105960007465206D75746578206265666F72652058
:10597000696E697469616C697A696E6700464C4149
:1059800053485F30005352414D5F3000000001002A
:105990000000434C4F434B004750494F5F31004795
:1059A00050494F5F3000554152545F3100554152CC
:1059B000545F300000000000000101000000000002
:1059C0005465726D696E616C0052545400534547C2
:1059D000474552006D61696E0076332E302E39399D
:1059E0002D6E637331002A2A2A20426F6F74696E0C
:1059F00067205A6570687972204F53206275696C10
:105A000064202573202573202A2A2A0A000000001A
:105A100001480000FFFFFFFF5401002001000000CB
:105A200068010020010000007C010020010000004E
:105A30009001002001000000C94A000000000000A1
:105A400000C201000001030000000000000000008F
:105A50000000000000C2010000010300000000007F
:105A6000000000000090D0030000000000000000D3
:105A70000000000000000000000000000000000026
:105A80000000000000000000000000000000000016
:105A90000000000000000000000000000000000006
:105AA00000000000000000000000000000000000F6
:105AB00000000000000000000000000000000000E6
:105AC00000000000000000000000000000000000D6
:105AD0000000000000000000FF00000000000000C7
